[
  {
    "comment": "21000 limit, 10 gwei price",
    "sender": "0xd4fe407789e11a27b7888a324ec597435353dc35",
    "receiver": "0xdf90dea0e0bf5ca6d2a7f0cb86874ba6714f463e",
    "hash": "0xb5cc4e3f468a1f664d25cc20172d5c02a22445c290cfe66521e6f43e5e6fa261",
    "hex": "0xf86b018502540be40082520894df90dea0e0bf5ca6d2a7f0cb86874ba6714f463e872386f26fc100008029a0c933e91702f2131f5565eafbad1eaccb6086dab9c5d6eba1bf454f3106099d3da015467094f7d60d0cd16702cee4460863cb94165714dd0d26a0df24995f785dcf",
    "raw": {
      "nonce": "0x01",
      "gasLimit": "0x5208",
      "gasPrice": "0x02540be400",
      "to": "0xdf90dea0e0bf5ca6d2a7f0cb86874ba6714f463e",
      "value": "2386f26fc10000",
      "data": "0x",
      "chainId": 3
    }
  }
]